:020000040800F2
:10000000B0040020D9010008371500086314000867
:1000100035150008D1040008D918000800000000B8
:10002000000000000000000000000000A116000811
:10003000D30400080000000039150008A3160008CA
:10004000F3010008F3010008F3010008F3010008C0
:10005000F3010008F3010008F3010008F3010008B0
:10006000F3010008F3010008F3010008F3010008A0
:10007000F3010008F3010008F3010008F301000890
:10008000F3010008F3010008F3010008F301000880
:10009000F3010008F3010008F3010008F301000870
:1000A000F3010008F3010008F3010008F301000860
:1000B000F3010008F3010008F3010008F301000850
:1000C000F3010008F3010008F3010008F301000840
:1000D0003D150008F3010008F3010008F3010008D2
:1000E000F3010008F3010008F3010008F301000820
:1000F000F3010008F3010008F3010008F301000810
:10010000F3010008F3010008F3010008F3010008FF
:10011000F3010008F3010008F3010008F3010008EF
:10012000F3010008F3010008F3010008F3010008DF
:10013000F30100080000000000000000F3010008C7
:10014000F3010008F3010008F3010008F3010008BF
:10015000F3010008F3010008F3010008F3010008AF
:10016000F3010008F3010008F3010008F30100089F
:10017000F3010008F3010008F3010008000000008B
:1001800000000000F3010008000000000000000073
:10019000F30100080000000000000000F301000867
:1001A000000000000000000000000000F301000853
:1001B000F3010008F3010008F3010008F30100084F
:1001C000F3010008DFF80CD000F070F90048004798
:1001D00019190008B0040020064880470648004767
:1001E000FEE7FEE7FEE7FEE7FEE7FEE7FEE7FEE7E7
:1001F000FEE7FEE731170008C50100082DE9F05FB2
:100200000546002092469B46884606468146402485
:100210001BE0284641464746224600F0D9F853469F
:100220005A46C01A914110D311461846224600F092
:10023000C0F82D1A67EB01084F4622460120002125
:1002400000F0B7F817EB00094E41201EA4F101049D
:10025000DFDC484631462A464346BDE8F09FD2B22D
:1002600001E000F8012B491EFBD270470022F6E79F
:1002700010B513460A4604461946FFF7F0FF20461C
:1002800010BD2DE9FE4F81EA030404F0004421F083
:10029000004100944FF0000B23F0004350EA0104AA
:1002A0005ED052EA03045BD0C3F30A54C1F30A558B
:1002B0002C44A4F2F3340194A0FB0254C1F31301C3
:1002C00041F48011C3F3130343F4801301FB024490
:1002D00000FB034E840A970A44EA815447EA835795
:1002E000A4FB076802958D0A05FB07854FEA932C4E
:1002F00004FB0C542705029D4FEA065847EA1637BF
:10030000B5EB08056EEB070C870E920E47EA8117D6
:1003100042EA8312A7FB0201B6EB0B0164EB000477
:100320002B0D43EA0C335E1844EB1C50DA46514661
:10033000E7FB0201C5F313044FEA0B3343EA1453FE
:100340004FEA0432019C43EA0603A4F10C04029430
:10035000009CCDE900B400F05AF803B0BDE8F08F7E
:1003600000200146F9E70EB540F233410291002129
:10037000CDE900110A460B4600F049F803B000BD74
:10038000C1F30A5210B5C1F3130140F2FF3341F437
:1003900080119A4201DA002010BD40F233439A42A4
:1003A000A2F2334203DC524200F012F810BD90403A
:1003B00010BD202A04DB203A00FA02F10020704729
:1003C0009140C2F1200320FA03F319439040704793
:1003D000202A04DB203A21FA02F00021704721FA9A
:1003E00002F3D040C2F12002914008431946704701
:1003F00010B5141E73F1000408DA401C41F100012D
:1004000092185B411A4301D120F0010010BD2DE983
:10041000F04D92469B4611B1B1FA81F202E0B0FA7A
:1004200080F220329046FFF7C4FF04460F4640EAB0
:100430000A0041EA0B0153465A46084313D01146BD
:1004400053EA010019D0C8F140025046FFF7C0FF3F
:1004500005460E46504659464246FFF7AAFF084356
:1004600005D0012004E020463946BDE8F08D00208B
:10047000054346EAE0762C4337430A986305E40ACD
:10048000A0EB08000022FD0A44EA47540A3002D5D6
:1004900000200146E9E7010510196941DDE9084539
:1004A00000196941BDE8F04DA2E70000064C074D78
:1004B00006E0E06840F0010394E807009847103434
:1004C000AC42F6D3FFF782FE141A0008341A000873
:1004D000FEE7704790F83510022903D0802141656E
:1004E00001207047052180F835100068016821F06F
:1004F000010101600020704770B5044600F0E8F883
:100500000546601C02D004480078044400F0E0F87E
:10051000401BA042FAD370BD080000202DE9F84F1F
:1005200000224FF0010803254FF00F0E0B6808FA68
:1005300002F42340A3426ED14E68012E05D0022E54
:1005400003D0112E01D0122E12D186684FEA420C30
:1005500005FA0CF7BE43CF6807FA0CF737438760FC
:100560004668A6430C79C4F30014944034434460B5
:10057000C668570005FA07FC8C6826EA0C06BC40E2
:100580003443C4604C68022C01D0122C13D1D4081F
:1005900000EB8404A346D4F8209054074FEAD46AB1
:1005A0000EFA0AF629EA06090E6906FA0AF646EA7A
:1005B0000906CBF8206006680C7926EA0C0604F0E0
:1005C0000304BC40344304604C68E40060D5334C01
:1005D000266846F480462660246822F0030604F468
:1005E000804400942E4C3444A446D4F8084896071E
:1005F000370F0EFA07F6B4432A4EB04201D1002657
:100600001FE0294EB04201D101261AE0274EB04228
:1006100002D1022615E03BE0254EB04201D103266F
:100620000FE0244EB04201D104260AE0224EB0422F
:1006300001D1052605E0214EB04201D1062600E099
:100640000726BE402643CCF808681D4E34684F6824
:100650009C43FF0300D51C433460194E361D34689B
:100660004F689C43BF0300D51C433460144E0836CA
:1006700034684F689C43FF0200D51C433460104E21
:100680000C3634684F689C43BF0200D51C4334606D
:10069000521C102AFFF44AAFBDE8F88F44380240DC
:1006A0000030014000000240000402400008024007
:1006B000000C0240001002400014024000180240EA
:1006C000003C01400AB1816170470904FBE700006A
:1006D00001488068704700000800002002488168D7
:1006E0000278114481607047080000200B4810B563
:1006F000016841F400710160016841F480610160AA
:10070000016841F480710160032000F071F800205D
:1007100000F006F800F024F8002010BD003C024074
:1007200070B50D4D04464FF47A712878B1FBF0F0A6
:100730000A490968B1FBF0F000F0BDFD48B9102C82
:1007400007D200222146501E00F032F800206C60D3
:1007500070BD012070BD00000800002014000020C2
:100760000B4882B0016841F480410160006800F4E8
:10077000804000900648001F016841F080510160F0
:10078000006800F080500090072002B000F030B800
:1007900044380240002809DB00F01F02012191408B
:1007A0004009800000F1E020C0F80011704700000F
:1007B000F0B40E4B1B680C46C3F30223C3F10705CC
:1007C000042D00D90425191D072901D2002300E0BA
:1007D000DB1E012606FA05F1491E214099409E4084
:1007E000761E16403143F0BC01F077B80CED00E006
:1007F000064900F0070208684FF6FF03184040EA78
:100800000220034A10430860704700000CED00E02E
:100810000000FA052DE9F0470E46050065D0DFF827
:100820001481D8F80000F7B200F00F00B04207D2F0
:1008300088F80070D8F8000000F00F00B04254D1E2
:1008400028683D4C810712D5400703D5206840F445
:10085000E05020602878000703D5206840F460400D
:1008600020602068A96820F0F00008432060287804
:10087000C0072DD0304968680839012812D00228F5
:1008800013D0032811D00968890700292DDA2168BF
:1008900021F0030101432160FFF71AFF814641F275
:1008A000883A0EE009688903EFE709688901ECE7F7
:1008B000FFF70EFFA0EB0901514502D90320BDE867
:1008C000F0872068696800F00C00B0EB810FEFD171
:1008D000D8F80010404601F00F01B14207D9077067
:1008E000006800F00F00B04201D00120E7E728784F
:1008F000400705D52068E96820F4E05008432060EF
:100900002878000706D52068296920F4604040EA6D
:10091000C100206000F038F82168084AC1F30311D3
:10092000515CC8400649086006480068FFF7F8FEB9
:100930000020C4E7003C024008380240FC190008CF
:10094000140000200C0000200448054900680968D4
:10095000044AC1F38221515CC84070471400002052
:10096000083802400C1A0008044805490068096864
:10097000044AC1F34231515CC84070471400002062
:10098000083802400C1A0008224810B5006810F020
:100990000C02214815D04110042A11D01D4C241FEF
:1009A000082A0FD00C2A0CD12268236802F03F02DB
:1009B0005B0221D52068C0F38810A0FB010120E074
:1009C000084610BD2268236802F03F025B0205D58D
:1009D0002068C0F38810A0FB010104E02168C1F386
:1009E0008811A1FB00010023FFF708FC2168C1F377
:1009F0000141491C49000AE02168C1F38811A1FBAB
:100A000000010023FFF7FAFB2168C1F30271B0FB7C
:100A1000F1F010BD083802400024F4002DE9F84F31
:100A20000546DFF828B30078ABF10407C007A7F14B
:100A3000040451D0DBF800105846C1F381010129AC
:100A40000FD00168C1F38101022902D1396849023E
:100A500007D40068C0F38100032809D13868400238
:100A600006D52068800337D56868002872D033E047
:100A70006868B0F5803F10D0B0F5A02F206810D086
:100A800020F480302060206820F480202060686896
:100A9000A8B1FFF71DFE06460DE0206840F4803047
:100AA000F4E740F480202060F7E700BFFFF710FE76
:100AB000801B642878D820688003F7D50CE0FFF706
:100AC00007FE064605E000BFFFF702FE801B642814
:100AD000F0D820688003F7D42878DFF87492800774
:100AE0004FF0000A46D5DBF80010584611F00C0F05
:100AF0000FD00168C1F38101022902D1396849028E
:100B000007D50068C0F38100032809D13868400286
:100B100006D42068800715D5E86801281AD111E0AD
:100B2000E868C0B10120C9F80000FFF7D1FD064612
:100B300005E000BFFFF7CCFD801B0228BAD8206873
:100B40008007F7D52068296920F0F80040EAC10045
:100B500020600FE0F7E0C9F800A0FFF7B9FD0646F6
:100B600005E000BFFFF7B4FD801B02281CD82068F9
:100B70008007F7D42878000727D5DFF8D08175489B
:100B8000696908F16C0881B101210160FFF7A0FDDE
:100B9000064604E0FFF79CFD801B022804D8D8F825
:100BA00000008007F6D510E089E0C0F800A0FFF74C
:100BB0008FFD064605E000BFFFF78AFD801B022877
:100BC0007DD8D8F800008007F6D42878400769D58A
:100BD0005E484FF0000838300068C0000BD45B4816
:100BE0003830016841F08051016000684FF0010821
:100BF00000F080500090584E3068C00511D4306825
:100C000040F480703060FFF763FD009006E000BFA5
:100C1000FFF75EFD0099401A022850D83068C005E1
:100C2000F6D54A4EA868683601280FD005283068E6
:100C300010D020F001003060306820F004003060F7
:100C4000A868B8B1FFF744FD00900FE0306840F0AD
:100C50000100F4E740F004003060F7E7FFF738FDEB
:100C60000099411A41F28830814264D83068800787
:100C7000F4D50EE0FFF72CFD009007E0FFF728FD0C
:100C80000099411A41F28830814254D83068800777
:100C9000F4D4B8F1000F05D02C483830016821F0A9
:100CA00080510160A869A8B3DBF80010C1F381018D
:100CB000022948D00228C9F860A005D000E03AE037
:100CC000FFF706FD054639E0FFF702FD064604E0A2
:100CD000FFF7FEFC801B02282DD820688001F7D486
:100CE000F5E907010843E9681C4A490802EB01419C
:100CF000AA6841EA82110843297C40EA0160297D03
:100D000040EA017038600120C9F86000FFF7E0FC9C
:100D1000054606E015E000BFFFF7DAFC401B02289D
:100D200009D820688001F7D50BE000BFFFF7D0FCA1
:100D3000401B022802D90320BDE8F88F20688001FB
:100D4000F4D40020F8E70120F6E70000083802405C
:100D500000004742800E4742007000400000FFFF45
:100D6000704790F85100704738B5016804464A68EA
:100D70008868C043430606D5C30704D1D3435B0646
:100D800001D4216C05E0830708D4D3431B0605D4A6
:100D9000616C01B02046BDE830400847830603D5AA
:100DA000430601D5C30551D4D3439B064ED4430615
:100DB0000AD494F85130032B49D0636D43F00403F7
:100DC0006365CB688B680093830609D4636D43F039
:100DD000010363658B6800930B6823F040030B608D
:100DE000C00506D4606D40F008006065206880682A
:100DF0000090606D002829D02068416821F0E00152
:100E00004160012084F85100900701D4D00722D01E
:100E10002068416821F003014160114DE06C40B150
:100E20000565E06CFFF756FB18B1606D40F04000BF
:100E30006065A06C002809D00565A06CFFF74AFB2F
:100E4000002803D0606D40F04000606538BDC86880
:100E50008868009038BD2046FFF782FF38BD00004B
:100E60004915000870B5040005D00025A56294F866
:100E7000510010B106E0012070BD84F850502046AA
:100E800000F030F8022084F851002068016821F059
:100E900040010160D4E901010843D4E90312114380
:100EA000084361690843218B01F400710843E1693B
:100EB0000843216A0843A16A084321680860A069C1
:100EC000042101EA1040616A0843216848602068F3
:100ED000C16921F40061C1616565012084F8510098
:100EE000002070BD70B586B0044614216846FFF737
:100EF000BDF92049206888423AD11F48016841F471
:100F000080410160006800F4804005901A48103864
:100F1000016841F004010160016801F004010591DC
:100F2000016841F0020101600068022400F0020043
:100F300005900420CDE9000402AA0325052682E8D5
:100F4000700069460D48FFF7E9FA6002CDE9000438
:100F500002AA012082E8610069460948FFF7DEFA2B
:100F6000002211462420FFF723FC2420FFF712FC67
:100F700006B070BD00380040403802400008024012
:100F8000000402402DE9F84F0446406800259846C9
:100F900016460F464FF0040BB0F5827F01D1A068D2
:100FA00088B194F85000012818D0012084F850002E
:100FB000FFF78EFB814694F851004FF0000A01289C
:100FC0000ED002257DE084F851B013460A46204633
:100FD000CDF8008000F07EF8BDE8F88F0220FBE736
:100FE000002F6DD0002E6BD084F851B0C4F854A0FF
:100FF000A763A687E687C4F830A0A4F834A0A4F8B5
:1010000036A0C4F840A0C4F844A0A068B0F5004FD2
:1010100004D12068016821F48041016020680168E2
:10102000490603D4016841F040010160E068D8B18D
:1010300039E020688168C90709D0007BA16B08707E
:10104000A06B401CA063E08F401EE0870CE0FFF720
:101050003FFBA0EB0901414503D3B8F1FF3F03D0AB
:1010600036E0B8F1000F33D0E08F0028E1D11DE069
:1010700020688168C90709D0C068A16B0880A06B8F
:10108000801CA063E08F401EE0870CE0FFF720FB90
:10109000A0EB0901414503D3B8F1FF3F03D017E0AE
:1010A000B8F1000F14D0E08F0028E1D14A46414644
:1010B000204600F051FA08B120206065606D00B153
:1010C0000125012084F8510084F850A0284683E7C8
:1010D0000325F6E72DE9F84F044690F85000002765
:1010E0000A9E1D4692468B464FF0010901280ED0FC
:1010F000012084F85000FFF7EBFA804694F8510085
:10110000616801280CD0B1F5827F07D102E002208E
:10111000BDE8F88FA16809B9042801D00227C2E010
:10112000BBF1000F27D0BAF1000F24D01DB394F803
:101130005100042802D0052084F851000020606589
:10114000C4F838A0E587A587C4F830B0E586A58641
:101150002064606420680168490603D4016841F096
:1011600040010160E068B0F5006F606805D0E8B349
:10117000012D46D07FE0012795E008B1012D39D13E
:10118000206B21680088C860206B801C2063E08E83
:10119000401EE0862EE02068816889070FD5E18E29
:1011A00069B1B9F1010F0AD1216B0988C160206BC7
:1011B000801C2063E08E401EE0864FF0000920680E
:1011C0008168C9070CD0E18F51B1C068A16B08805C
:1011D000A06B801CA063E08F401EE0874FF00109E8
:1011E000FFF776FAA0EB0800B04200E009E001D377
:1011F000701C50D1E08E0028CDD1E08F0028CAD1DC
:101200003FE0206B216800780873206B401C20634E
:10121000E08E401EE0862EE02068816889070FD5A9
:10122000E18E69B1B9F1010F0AD1216B097801731F
:10123000206B401C2063E08E401EE0864FF00009CA
:1012400020688168C9070CD0E18F51B1C068A16BDB
:101250000870A06B401CA063E08F401EE0874FF039
:101260000109FFF735FAA0EB0800B04202D3701C69
:1012700001D010E07EB1E08E0028CDD1E08F0028B3
:10128000CAD142463146204600F094F928B10127E0
:101290002020606507E0032705E0A06818B92068F2
:1012A000C16880680090012084F85100002084F813
:1012B000500038462CE710B5401EB0F1807F01D3B6
:1012C000012010BD4FF0E02460610F21601700F095
:1012D00004FB0020A06107202061002010BD70B534
:1012E000040004D094F83900002510B106E0012074
:1012F00070BD84F83850204600F022F8242084F88D
:1013000039002068C16821F40051C160204600F016
:101310001DFA2068016921F490410161206841694A
:1013200021F02A0141612068C16841F40051C16087
:10133000E563202084F8390084F83A00002070BD6D
:1013400010B586B0044614216846FEF78FFF134996
:101350002068884220D112480021026842F40032FD
:101360000260006800F4003005900D4810380268F3
:1013700042F001020260006800F0010005900C20BC
:1013800000900220CDE90101032003900720049082
:1013900069460448FFF7C2F806B010BD004400409B
:1013A00040380240000002402DE9F843044690F81E
:1013B00039001F4616460D46202850D1B5B1AEB1B2
:1013C00094F8380001284AD0012084F838004FF002
:1013D0000008C4F83C80212084F83900FFF778F930
:1013E000A6848146E68484F8388026E00120BDE8A2
:1013F000F883E08C401EE084A0684B46B0F5805F27
:101400004FF000024FF080012046009703D000F01B
:1014100031FAE8B90DE000F02DFAC8B92888216842
:10142000C0F308004860206908B16D1C05E0AD1CE0
:1014300003E0216815F8010B4860E08C0028D8D142
:101440004B46002240212046009700F013FA08B1D5
:101450000320CCE7202084F839000020C7E70220D1
:10146000C5E7FEE730B587B014216846FEF7FEFEFB
:101470001E480024016841F004010160016801F088
:1014800004010591016841F080010160016801F0EB
:1014900080010591016841F001010160016801F0DE
:1014A00001010591016841F0020101600068104DE1
:1014B00000F002000590002208212846FFF702F9FB
:1014C0004FF4005000900B48CDE9010469462846CE
:1014D000FFF724F8082000900120CDE901046946B7
:1014E00028460394FFF71AF807B030BD30380240A1
:1014F00000080240000021100D480C494FF4007212
:1015000001604FF4827141604FF48061816000217D
:10151000C1600161C0E905122822C0E907214162CA
:1015200081620A21C162FFF79DBC000000380040C3
:1015300018000020FEE77047704700000148FFF7E1
:1015400013BC00001800002010B5806B0021C1877B
:10155000C186FFF705FC10BDF8B5044640684FF49E
:101560008273984221D1A0684FF48065B0F5004F96
:1015700001D0A8420AD12068066826F0400606601D
:101580006068984211D1A068A8420ED000920B4624
:1015900000228021204600F039F8002804D0606D38
:1015A00040F0200060650320F8BD00920B46002249
:1015B0000121EFE738B504461248134B0068B0FB31
:1015C000F3F04FF47A73584300906068B0F5827F6F
:1015D0000DD10B46009200228021204600F016F823
:1015E00070B1606D40F020006065032038BD009848
:1015F00030B1401E009020688068C0430006F6D5D8
:10160000002038BD1400002000366E012DE9F041A5
:101610001D4617460E460446DDF8188008E0681C93
:1016200006D0FFF755F8A0EB0800A8420BD255B141
:101630002068806836EA000030D00020B842EED141
:101640000020BDE8F0812068416821F0E0014160A0
:101650006068B0F5827F0BD1A068B0F5004F02D072
:10166000B0F5806F04D12068016821F0400101606D
:10167000A06AB0F5005F09D12068016821F400512B
:1016800001602068016841F400510160012084F884
:101690005100002084F850000320D2E70120CDE75C
:1016A0007047FFF71BB8000030B593B0342168468F
:1016B000FEF7DCFD14210DA8FEF7D8FD1A48002521
:1016C000016841F080510160006800F08050129084
:1016D0001648016821F4404141F4804101600068EE
:1016E000022400F440401290012003901020049046
:1016F000009406940820CDE907506420CDE9090440
:101700000B9468460C94FFF789F90DA90F2081E826
:1017100031004FF4A0501090E002119003210DA869
:10172000FFF778F813B030BD403802400070004039
:101730000548016841F47001016003494FF0006001
:10174000803908607047000088ED00E02DE9F04125
:10175000044600680169E26821F4405111430161C7
:101760002169A068E269084361691143084321685F
:10177000CA6849F20C639A430243CA60206841690F
:10178000A26921F4407111434161E0691927642580
:101790003226B0F5004F354A354920684FF0000831
:1017A00006D0884201D0904236D1FFF7DDF835E00F
:1017B000884201D0904202D1FFF7D6F801E0FFF74E
:1017C000C3F861684A18A0FB070148EB0803FEF75D
:1017D00015FD0146B0FBF5F00201B1FBF5F06FF02D
:1017E0001803584301EB800006EBC000B0FBF5F096
:1017F00000F0F80002EB4002B1FBF5F0584301EBBA
:10180000800006EBC000B0FBF5F000F00700216897
:1018100010448860BDE8F081FFF796F861688B0F8F
:101820008A00A0FB0701FEF7E9FC0146B0FBF5F0DA
:101830006FF01802504301EB800006EB0010B0FB84
:10184000F5F000F0F002B1FBF5F002EB0012B1FB95
:10185000F5F06FF01803584301EB800006EB001021
:10186000B0FBF5F000F00F00D1E7000000140140DC
:10187000001001402DE9F041984617460E460446F7
:10188000069D1DE0681C1BD02DB1FEF721FFA0EBCB
:101890000800A84214D92068C16821F4D071C16041
:1018A0002068416921F001014161202084F839005C
:1018B00084F83A00002084F838000320BDE8F08165
:1018C0002068006836EA000004D00020B842D9D071
:1018D0000020F3E70120F9E7FEE70907090E0028D9
:1018E00004DB00F1E02080F80014704700F00F00E6
:1018F00000F1E02080F8141D704702E008C8121FB4
:1019000008C1002AFAD170477047002001E001C1E8
:10191000121F002AFBD170472DED028BFEF7E6FE69
:10192000FFF7C2FEFFF79EFD2F482E490C220160F3
:101930004FF4E131416000218160C160C0E90412CF
:101940008161C161FFF7CBFCFFF7D6FD284D274E23
:101950009FED288B2C1F4FF4FA7701220821304687
:10196000FEF7B0FE0120FEF7C7FD1F485838FFF70D
:10197000F8F9042814D0002208213046FEF7A2FE10
:101980000120FEF7B9FD18485838FFF7EAF9012899
:1019900006D115480A23022215495838FFF7F2FAF2
:1019A000012208213046FEF78DFE0120FEF7A4FD3E
:1019B0002878010268780843C0082080FEF7D3FC2D
:1019C00053EC182BFEF75DFCFEF7DAFC084960804B
:1019D0000A230222891E0448FFF7E6FC3846FEF778
:1019E0008BFDBAE700440040700000200008024070
:1019F00004000020000000000000D03F00000000B4
:101A000000000000010203040607080900000000AE
:101A100001020304341A000800000020180000002E
:101A2000FA1800084C1A000818000020980400005A
:101A30000A1900080000000000000000010000007A
:0C1A400010000000000000000024F40072
:04000005080001C529
:00000001FF
